:100000000C9468010C9485010C9485010C94012CCE
:100010000C94F42B0C9485010C9485010C948501AF
:100020000C9485010C9485010C9485010C943B2C57
:100030000C9485010C9485010C9485010C94850128
:100040000C94302C0C9485010C94B52E0C94552FE7
:100050000C9485010C9485010C9485010C94850108
:100060000C9485010C948501084AD73B3BCE016E68
:1000700084BCBFFDC12F3D6C74319ABD56833DDAFF
:100080003D00C77F11BED9E4BB4C3E916BAAAABE0E
:10009000000000803F05A84CCDB2D44EB93836A937
:1000A000020C50B9918688083CA6AAAA2ABE000074
:1000B00000803F000D0A4772626C20312E316820AB
:1000C0005B27242720666F722068656C705D0D0ABF
:1000D00000244E005B4F50543A005B5645523A3173
:1000E0002E31682E32303139303833303A005B549B
:1000F0004C4F3A005B4739323A0033300032380017
:100100005B4700204700204D002053002046002080
:10011000540033382E005B47433A47005B484C504D
:100120003A242420242320244720244920244E201C
:1001300024783D76616C20244E783D6C696E652094
:10014000244A3D6C696E652024534C502024432082
:100150002458202448207E2021203F206374726C84
:100160002D785D0D0A00414C41524D3A007C413AD8
:10017000007C4F763A007C57434F3A007C506E3AF1
:10018000007C46533A007C42663A007C57506F73BD
:100190003A007C4D506F733A00536C6565700044B3
:1001A0006F6F723A00436865636B00416C61726DFA
:1001B00000486F6D65004A6F6700486F6C643A00D5
:1001C00052756E0049646C650000004843000048A9
:1001D00043000048430000484200004842000048F5
:1001E000420000614500006145000061459A99198F
:1001F000C09A9919C0000000C00A000019010AD76E
:10020000233C6F12033B00007A4400000000000012
:100210000000C84100004842FA000AD7233C0D0AFA
:10022000005B5052423A006572726F723A006F6B17
:100230000D0A00536C656570696E670052657374D2
:100240006F72696E67207370696E646C65005265C9
:1002500073746F72696E672064656661756C747320
:100260000050676D20456E6400436865636B204CE9
:10027000696D69747300436865636B20446F6F72C6
:100280000044697361626C656400456E61626C650F
:10029000640043617574696F6E3A20556E6C6F63CC
:1002A0006B656400272448277C2724582720746F17
:1002B00020756E6C6F636B00526573657420746F8C
:1002C00020636F6E74696E7565005B4D53473A002D
:1002D00011241FBECFEFD8E0DEBFCDBF11E0A0E0FC
:1002E000B1E0EAE6F4E702C005900D92A032B10752
:1002F000D9F727E0A0E2B1E001C01D92A538B2070E
:10030000E1F70E947F2F0C94333A0C9400008F92F7
:100310009F92AF92BF92CF92DF92EF92FF920F9394
:100320001F93CF93DF937C016B01DC01EC91F0E034
:10033000EB5CF84F8081EF018D3229F522968181A7
:1003400001E0912CF0E010E020E030E0A9015E0136
:10035000E0EDE80FEA3018F5FF5FF930E0F49110B6
:100360001150A5E0B0E00E940C3A9B01AC01220FB5
:10037000331F441F551F2E0F311D411D511D219646
:10038000D5018C91E4CF8B3219F0219600E0D9CFC2
:1003900022968181FBCF9110F2CF1F5FF0CFEE3F0D
:1003A00029F4911003C099249394E9CFFF23F9F025
:1003B000CA01B9010E940B374B015C0120E030E01B
:1003C000A9010E94593681112BC0002309F445C0B0
:1003D000B7FAB094B7F8B094F60180829182A28205
:1003E000B382C553D740C150F701C083F1E08F2FCE
:1003F000DF91CF911F910F91FF90EF90DF90CF9001
:10040000BF90AF909F908F9008952AE037ED43E220
:100410005CE3C501B4010E94BB384B015C011E5F67
:100420001F3F9CF31F3F59F42DEC3CEC4CEC5DE37B
:10043000C501B4010E94BB384B015C01C6CF11233A
:1004400021F220E030E040E251E4C501B4010E9415
:10045000BB384B015C011150F2CFD6018D929D92B9
:10046000AD92BC921397BDCF2FB7F89490913A06F6
:10047000892B80933A062FBF08952FB7F894909157
:100480003906892B809339062FBF08959FB7F894BA
:10049000809338069FBF08959FB7F8942091370640
:1004A00080958223809337069FBF08952FB7F894D5
:1004B00090913706892B809337062FBF0895AF920E
:1004C000BF92CF92DF92EF92FF920F931F93CF9341
:1004D000DF93EC010AE816E05C018CE0A80EB11C89
:1004E000C990D990E990F99020E030E0A901C701C6
:1004F000B6010E947B381816DCF0F8012191319189
:10050000419151918F01C701B6010E94593687FD73
:100510000FC0CA15DB0521F780E0DF91CF911F9155
:100520000F91FF90EF90DF90CF90BF90AF90089524
:1005300081E0F3CF8F929F92AF92BF92CF92DF92E2
:10054000EF92FF920F931F93CF93DF93EB0126E679
:10055000E22E26E0F22E8C016B018CE0C80ED11C3D
:100560006991799189919991F70181909190A190E8
:10057000B1907F010E940D37A50194010E9463365E
:10058000F80161937193819391938F01CC15DD05EF
:1005900039F7DF91CF911F910F91FF90EF90DF908E
:1005A000CF90BF90AF909F908F90089583B183704C
:1005B0009091AB0696FD02C093E08927882341F015
:1005C000982F9170827019F0892F82600895892F79
:1005D0000895EBE6F0E080818C7F8083E8E6F0E030
:1005E00080818E7F8083089584B18C7F84B985B1AA
:1005F0008C7F85B98091AB0683FF0BC080916B0027
:10060000836080936B0080916800816080936800B4
:1006100008950C94E9026F927F928F929F92AF920D
:10062000BF92CF92DF92EF92FF920F931F93CF93DF
:10063000DF93EB018C015B018CE0A80EB11C89E912
:10064000682E96E7792E26E9822E3EE7932EC990F2
:10065000D990E990F99020E030E0A901C701B601F6
:100660000E9459368823B9F0A7019601F8016081EC
:100670007181828193810E9463366B017C01E894D1
:10068000F7F89301A401C701B6010E947B38181640
:1006900014F0360147010C5F1F4FCA15DB05B9F690
:1006A000B301C401DF91CF911F910F91FF90EF90A3
:1006B000DF90CF90BF90AF909F908F907F906F9082
:1006C0000895EBE1F6E0ACE3B6E04D915D916D91FC
:1006D0007C911397408351836283738314964D9169
:1006E0005D916D917C9117974483558366837783E1
:1006F00018968D919D910D90BC91A02D808791872A
:10070000A287B3870895BF92CF92DF92EF92FF92B4
:100710000F931F93CF93DF937C01FC0102A513A5D8
:10072000D4A5C5A5818980FF33C060915D0670E0C6
:1007300090E080E00E940D372AE037ED43E25CE371
:100740000E94BB389B01AC01B8018D2F9C2F0E94E9
:10075000BB388B01D82FC92F20E030E040E85FE3A1
:10076000B8018D2F9C2F0E947B38181624F000E0D2
:1007700010E0D0E8CFE3B8018D2F9C2FDF91CF910F
:100780001F910F91FF90EF90DF90CF90BF90089551
:1007900082FD17C060915C0670E090E080E00E94EE
:1007A0000D372AE037ED43E25CE30E94BB389B0142
:1007B000AC01B8018D2F9C2F0E94BB388B01D82F24
:1007C000C92FF701B6A0C7A0D0A4F1A498014D2F5E
:1007D0005C2F6B2D7C2D8D2D9F2D0E94593687FF10
:1007E000BBCF0B2D1C2DDD2DCF2DB6CF8091F90267
:1007F00090911A06981739F022E3829FC0011124C4
:1008000086509D4F089590E080E00895F894F999FE
:10081000FECF92BD81BD81E08FBB20B5862F8227A0
:10082000082E000C990B50E086239523892B49F064
:1008300084E16F3F11F060BD84E08FBBF99A78943A
:1008400008952617E1F360BD84E2F7CF9F92AF923F
:10085000BF92CF92DF92EF92FF920F931F93CF93AD
:10086000DF935C018A017B01E40EF51EEB01912C04
:100870006C01C61AD70ACE018C0D9D1D21E0911086
:1008800007C0292D990C330B232F221F2227221F4B
:100890006991962E920E0E940604CE15DF0559F737
:1008A000692DC501800F911FDF91CF911F910F918D
:1008B000FF90EF90DF90CF90BF90AF909F900C94FF
:1008C00006046AE090E080E00E94060445E550E0FE
:1008D00066E676E081E090E00C942604F999FECF7C
:1008E00092BD81BD81E08FBB80B508959F92AF928C
:1008F000BF92CF92DF92EF92FF920F931F93CF930D
:10090000DF935B018A017C01E40EF51EEC01912C62
:100910006B01C81AD90AC6018C0F9D1F0E946E0474
:1009200021E0911007C0292D990C330B232F221F92
:100930002227221F982E920E8993CE15DF0559F794
:10094000C501800F911F0E946E0421E030E08915DF
:1009500011F030E020E0C901DF91CF911F910F919C
:10096000FF90EF90DF90CF90BF90AF909F90089551
:10097000CF93DF93C091F502D091F6022097C9F092
:100980008091C60281608093C6026091DC02709102
:10099000DD028091DE029091DF029B01AC010E949A
:1009A000BB386A8B7B8B8C8B9D8B1092F6021092DE
:1009B000F502DF91CF9108952F923F924F925F926F
:1009C0006F927F928F929F92AF92BF92CF92DF925F
:1009D000EF92FF920F931F93CF93DF9300D000D03D
:1009E000CDB7DEB700911A06002309F486C009834B
:1009F0003981315039831091F702131709F466C019
:100A0000C32ED12CE2E33E9FC00111249C0126504D
:100A10003D4F7901F90176888788908CA18C628D91
:100A2000738D848D958D9B01AC010E946435F70117
:100A3000268D378D40A151A10E94BB38B62EE72EDE
:100A4000F82E9B83262F372F482F592F672D782D6F
:100A5000892D9A2D0E94593687FF03C0B72C740147
:100A6000AB8282E38C9DF0018D9DF00D1124E65048
:100A7000FD4F8B2D9E2DAF2DBB81828B938BA48B35
:100A8000B58BF9818F2FF11101C080E1FF24FA9419
:100A9000F80E3090F9021F1133C0131102C00E94EA
:100AA000B804E2E31E9FC001112486509D4F9A8333
:100AB000898333243394310EF0E13F1201C0312C8D
:100AC00082E3282E031185C01093F7020F900F9038
:100AD0000F900F90DF91CF911F910F91FF90EF90AA
:100AE000DF90CF90BF90AF909F908F907F906F904E
:100AF0005F904F903F902F90089520E1298378CF09
:100B0000298182E3289F9001112426503D4F3C8388
:100B10002B8322E3E22E8F2C912CFE9CC00111240A
:100B2000FC01E650FD4FFA83E983F11002C090E129
:100B3000F92EFA94F31002C00E94B804E89CC00198
:100B4000E99C900D11249C0126503D4F6901F9014B
:100B500046885788608C718CA301920162897389E1
:100B6000848995890E945936882339F1F601628D6E
:100B7000738D848D958D9B01AC010E946435F601C7
:100B8000268D378D40A151A10E94BB38EB81FC819D
:100B900022893389448955890E9464354B015C015F
:100BA000AC019B01C301B2010E947B38F60118160B
:100BB0005CF4828A938AA48AB58A29813A813C832B
:100BC0002B831F11A8CF6DCF428A538A648A758AFE
:100BD000F4CFC32CD12C329CC00111249C0126508F
:100BE0003D4F7901E981FA8142885388648875888C
:100BF000F90182889388A488B588A5019401C3016E
:100C0000B2010E94593687FF26C0E981FA81628DC0
:100C1000738D848D958D9B01AC010E946435E981B3
:100C2000FA81268D378D40A151A10E94BB38A301C6
:100C300092010E9464352B013C01AC019B01C5016E
:100C4000B4010E947B38181634F4F701428A538AA3
:100C5000648A758A132D2C9CF0012D9CF00D1124B3
:100C6000E650FD4F26893789408D518D6289738901
:100C7000848995890E945936811101C0132D3394BE
:100C8000F0E13F1201C0312CFA82E9821BCF909132
:100C90009706492F80919806282F90FF11C094E065
:100CA00080FF10C080E241FD986021FD806442FD1C
:100CB000906122FD80689093160280931702089538
:100CC00090E0EECF80E0EFCF88B1E0911402F09198
:100CD0001502EE0FFF1FE05FFE4F837C9081892B92
:100CE00088B98BB1E0911202F0911302EE0FFF1F51
:100CF000E050FF4F8F709081892B8BB908950E942F
:100D00006406E9E1F2E080911602868780919606FA
:100D10008250990B880F81958587EFE6F0E08081FE
:100D20008260808308950E94F603892B19F082E087
:100D30000C9456020895E091240191E09E0F99369B
:100D400009F490E020918E01291761F0F0E0EB5D4D
:100D5000FE4F8083909324018091C1008062809334
:100D6000C10004C02091370624FFECCF0895CF9333
:100D7000DF93C5E3D7E08991811103C0DF91CF9163
:100D800008950E949B06F7CF8F929F92AF92BF92D9
:100D9000CF92DF92EF92FF920F931F93CF93DF9347
:100DA000CDB7DEB72D970FB6F894DEBF0FBECDBF1F
:100DB0006B017C01042F20E030E0A9010E9459362C
:100DC00087FF07C08DE20E949B06F7FAF094F7F8C0
:100DD000F094102F123008F054C000FF0AC020E039
:100DE00030E040E251E4C701B6010E94BB386B011C
:100DF0007C0120E030E040E05FE3C701B6010E94E3
:100E000064350E94D53610E03AE0832E912CA12C57
:100E1000B12CE12FF0E06115710581059105E9F52F
:100E200081E090E08C0F9D1FE80FF91F80E3101701
:100E300008F445C0101309C0E1E0F0E0EC0FFD1F1D
:100E4000E10FF11D80E380831F5FEE24E394F12C1A
:100E5000EC0EFD1EE10EF11C111134C02D960FB6E3
:100E6000F894DEBF0FBECDBFDF91CF911F910F91E0
:100E7000FF90EF90DF90CF90BF90AF909F908F90BA
:100E8000089520E030E048EC52E4C701B6010E942A
:100E9000BB386B017C0112509DCFEE24E394F12C02
:100EA000EC0EFD1EEE0EFF1EA50194010E94E4391A
:100EB000605DF7016083B901CA011F5FAACF1F5FA0
:100EC0008193B5CF101303C08EE20E949B06F701F9
:100ED00082917F010E949B061150BECF2091AB06EC
:100EE00040E020FF07C02BE832E441E25DE30E94CE
:100EF000BB3841E00C94C4062091AB0643E020FFD0
:100F000007C02BE832E441E25DE30E94BB3844E0D5
:100F10000C94C4060F931F93CF938C01C0E0F8018B
:100F200061917191819191918F010E947C07C230F2
:100F300019F08CE20E949B06CF5FC33081F7CF91FE
:100F40001F910F910895CF93DF93843658F06AE094
:100F50000E94C439C0E3C90F6AE00E94C439D0E3DB
:100F6000D90F04C0C0E0D0E08A30B0F7805D0E94A5
:100F70009B06DD2319F08D2F0E949B06CC2329F0C0
:100F80008C2FDF91CF910C949B06DF91CF91089528
:100F9000CF93DF93EC01FE0184912196811103C070
:100FA000DF91CF9108950E949B06F5CF8EE192E0EC
:100FB0000C94C807CF93C82F87E292E00E94C8071D
:100FC0008C2F0E94A307CF910C94D607811104C0E7
:100FD0008EE292E00C94C8070C94DA07CF92DF926D
:100FE000EF92FF92CF93DF93D82F6A017B01C22F3C
:100FF00084E20E949B068D2F0E94A3078DE30E942E
:101000009B064C2FC701B6010E94C406DF91CF9109
:10101000FF90EF90DF90CF900C94D607CF93DF93A3
:10102000D82FC62F84E20E949B068D2F0E94A30713
:101030008DE30E949B068C2F0E94A307DF91CF9126
:101040000C94D607EF92FF920F931F93CF93DF93E9
:101050006091960670E080E00E940E08609199060B
:1010600070E081E00E940E086091970670E082E0D7
:101070000E940E086091980670E083E00E940E08BE
:101080006091AB0662FB662760F970E084E00E9425
:101090000E086091AB0666FB662760F970E085E09C
:1010A0000E940E088091AB06082E000C990B692F48
:1010B000661F6627661F70E086E00E940E0860913A
:1010C0009A0670E08AE00E940E0840919B065091BB
:1010D0009C0660919D0670919E0623E08BE00E9425
:1010E000EE0740919F065091A0066091A106709175
:1010F000A20623E08CE00E94EE076091AB066170CF
:1011000070E08DE00E940E086091AB0665FB6627DB
:1011100060F970E084E10E940E086091AB0663FB09
:10112000662760F970E085E10E940E086091AB06C9
:101130006295617070E086E10E940E086091AC06D5
:1011400070E087E10E940E084091AD065091AE0616
:101150006091AF067091B00623E088E10E94EE072F
:101160004091B1065091B2066091B3067091B406F9
:1011700023E089E10E94EE076091B5067091B60602
:101180008AE10E940E084091B7065091B80660911E
:10119000B9067091BA0623E08BE10E94EE074091F8
:1011A000A3065091A4066091A5067091A60620E0C2
:1011B0008EE10E94EE074091A7065091A80660912B
:1011C000A9067091AA0620E08FE10E94EE076091C7
:1011D000AB066695617070E080E20E940E0884E6BE
:1011E000F82E10E0C6E6D6E000E0E02EEF0C12305C
:1011F00011F1133069F11130C9F0488159816A81C8
:101200007B8123E08E2D0E94EE070F5F2496033032
:1012100061F78AE0F80E1F5F8CE8F812E3CFDF91E8
:10122000CF911F910F91FF90EF9008954C855D85B0
:101230006E857F85E6CF20E030E041E655E4688D9D
:10124000798D8A8D9B8D0E946336AB01BC01D9CF0D
:101250004CA15DA16EA17FA17058D3CF8DE50E94F6
:101260009B060C94D607CF93DF93CDB7DEB72C97B0
:101270000FB6F894DEBF0FBECDBF81E292E00E94B0
:10128000C80768E476E0CE0101960E949A02CE017A
:1012900001960E948A078AE30E949B0680915A0663
:1012A0000E94A3070E942E092C960FB6F894DEBF69
:1012B0000FBECDBFDF91CF91089590915606911149
:1012C00004C085B185B91092600608958093B3007B
:1012D000811106C08091B0008F778093B00008958F
:1012E0008091B0008068F9CFCF93DF9384B184B947
:1012F000C0EBD0E083E0888384E08093B10084B1C8
:1013000084B92091A7063091A8064091A906509172
:10131000AA066091A3067091A4068091A5069091FB
:10132000A6060E9463359B01AC0160E070E08EE789
:1013300093E40E94633660932001709321018093AF
:1013400022019093230188818F778883DF91CF9149
:1013500008956CE376E083ED96E00C949A02EBE15D
:10136000F6E08CE1DF011D928A95E9F71092F9020F
:1013700010921A0681E08093F8021092F702089505
:101380004F925F926F927F92AF92BF92CF92DF9215
:10139000EF92FF920F931F93CF93DF93EC015C01C9
:1013A0002CE0A20EB11C8C01C12CD12C7601F801CD
:1013B00041905190619071908F0120E030E0A9013F
:1013C000C301B2010E945936882371F0A301920132
:1013D000C301B2010E94BB389B01AC01C701B60139
:1013E0000E9464356B017C010A151B0501F7C701DA
:1013F000B6010E945A396B017C01AC019B0160E08F
:1014000070E080E89FE30E9463362B013C01699104
:101410007991899199915E01F4E0AF1AB108A30125
:1014200092010E94BB38F5016083718382839383AC
:10143000C017D10761F7C701B601DF91CF911F91A6
:101440000F91FF90EF90DF90CF90BF90AF907F9083
:101450006F905F904F9008954F925F926F927F923E
:101460008F929F92AF92BF92CF92DF92EF92FF92B4
:101470006B017C018090A7069090A806A090A90619
:10148000B090AA064090A3065090A4066090A506CE
:101490007090A606A3019201C501B4010E947B3899
:1014A00087FF1BC060915E0670E090E080E00E94C4
:1014B0000D372AE037ED43E25CE30E94BB38A70119
:1014C00096010E94BB386B017C01AC019B01C301FA
:1014D000B2010E9459361816B4F04092620650923A
:1014E000630660926406709265068FEFFF90EF903E
:1014F000DF90CF90BF90AF909F908F907F906F9034
:101500005F904F900895A7019601C501B4010E9414
:101510007B3887FD1CC020E030E0A901C701B6017F
:101520000E945936811109C010926206109263061A
:101530001092640610926506D9CF8092620690924E
:101540006306A0926406B092650681E0CFCFC09298
:101550006206D0926306E0926406F0926506A501E9
:101560009401C701B6010E9463352091200130919A
:10157000210140912201509123010E94BB380E9419
:10158000483720E030E040E85FE30E9464350E9485
:10159000DC36862FABCF90915606911111C0811188
:1015A00010C01092620610926306109264061092A8
:1015B00065068091B0008F778093B000109260062E
:1015C000089595B195B99091AB0691FF05C0803211
:1015D00019F440E050E0BA01CB01BA010E942C0A94
:1015E0000E946609EBCF2F923F924F925F926F92CB
:1015F0007F928F929F92AF92BF92CF92DF92EF92A3
:10160000FF920F931F93CF93DF93CDB7DEB7C254F2
:10161000D1090FB6F894DEBF0FBECDBF3B010091DC
:101620001A06202E312C22E3029FA0011124BA01B8
:1016300066507D4F7CAB6BABFB0111922A95E9F7AD
:10164000F3012085FB01218BF301448155816681E3
:101650007781EBA9FCA946A757A760AB71AB21FF27
:10166000F0C02CE0ECE3F6E0DE01599601900D921B
:101670002A95E1F789AB9AAB26E636E021963FAF93
:101680002EAF2197BE01635F7F4F7EAF6DAFCE015E
:1016900049969CAF8BAFEBA9FCA9FAAFE9AF9E01CD
:1016A0002B5D3F4F3EAB2DAB38AF2FAB10E082E34D
:1016B000829D2001839D500C1124B20166507D4F04
:1016C0002B01CB010C9623969FAF8EAF239790E111
:1016D000490E511CE9A9FAA96191719181919191E9
:1016E000FAABE9AB2196EEADFFAD219781909190D9
:1016F000A190B1902196FFAFEEAF2197A501940183
:101700000E94BB380E948838EDADFEAD61937193A5
:1017100081939193FEAFEDAFEBADFCADC190D19055
:10172000E190F190FCAFEBAF6C197D098E099F0938
:101730009B01AC0197FF07C022273327A901261B75
:10174000370B480B590BE9ADFAAD21933193419317
:101750005193FAAFE9AF2396EEADFFAD2397C0806A
:10176000D180E280F380C216D306E406F50610F4B9
:1017700069017A012396EEADFFAD2397C082D18235
:10178000E282F3820E940D37A50194010E94633624
:10179000EFA9F8AD6193719381939193F8AFEFAB9B
:1017A00020E030E0A9010E94593687FF0BC090E28B
:1017B000112321F090E8113009F490E4F2018081C6
:1017C000892B80831F5F133009F084CF80E0CD2800
:1017D000CE28CF2809F4CBC0CE0185960E94C0093F
:1017E0004B015C0122E3229DC001239D900D112439
:1017F0009C0126503D4F7901F901868E978EA0A25B
:10180000B1A2BE016B5D7F4F8EE796E00E940B0395
:10181000F701628F738F848F958FBE016B5D7F4F51
:1018200082E796E00E940B03F70166A377A380A7E7
:1018300091A7118910FF09C062A773A784A795A774
:1018400010C02CE0EBE1F6E00FCFF30120813181F5
:101850004281538113FDA5C0F70122A733A744A7F6
:1018600055A78091F902081711F011FFA0C082E37B
:10187000829DF001839DF00D1124E650FD4F128AE8
:10188000138A148A158A12A213A214A215A282E343
:10189000829D8001839D100D112406501D4FF8017B
:1018A000818981FD63C08BA99CA90E9483036B0180
:1018B0007C018090330690903406A0903506B0905D
:1018C0003606AC019B01C501B4010E94593687FF61
:1018D00036C1A5019401C501B4010E94BB38F801CD
:1018E000668B778B808F918F82E3829D8001839DB1
:1018F000100D112406501D4FF80182A093A0A4A042
:10190000B5A0A501940166897789808D918D0E948B
:101910007B3818162CF4F801868A978AA08EB18E2F
:10192000C0923306D0923406E0923506F092360625
:101930008CE0FE01B596A7E2B6E001900D928A9583
:10194000E1F78CE0FE013D96ABE1B6E001900D922F
:101950008A95E1F78091F80280931A068F5F8031B3
:1019600009F480E08093F8020E94DC0481E0CE5B01
:10197000DF4F0FB6F894DEBF0FBECDBFDF91CF9122
:101980001F910F91FF90EF90DF90CF90BF90AF909D
:101990009F908F907F906F905F904F903F902F908F
:1019A0000895C501B4010E94BB38F70145CF27E275
:1019B00036E03AAB29AB8E010F5F1F4F6DA97EA9B0
:1019C000645F7F4F7CAF6BAFC12CD12C76010FAB26
:1019D00019AFE9A9FAA981909190A190B190FAABC1
:1019E000E9ABEDA9FEA94190519061907190FEABD9
:1019F000EDABA3019201C501B4010E94BB389B016C
:101A0000AC01C701B6010E9463356B017C01A501E1
:101A10009401C301B2010E946335F801619371938F
:101A2000819391938F012BAD3CAD6DA97EA92617B3
:101A3000370779F62FEE3FEF4FE75FE3C701B601B7
:101A40000E947B3818164CF482E3829DF001839D3E
:101A5000F00D1124E650FD4F16CF2FEE3FEF4FE76C
:101A60005FEBC701B6010E94593687FF11C082E3C0
:101A7000829DF001839DF00D1124E650FD4F89E910
:101A800096E7A6E9BEE782A393A3A4A3B5A3FFCEDE
:101A90008FA999AD0E94C0096FA979AD8EE796E034
:101AA0000E940B034B015C01A701960160E070E00E
:101AB00080E89FE30E94633520E030E040E05FE390
:101AC0000E94BB380E945A396B017C0120919B0611
:101AD00030919C0640919D0650919E06C501B4012F
:101AE0000E94BB38A70196010E94BB384B015C01E4
:101AF000A701960160E070E080E89FE30E946335F3
:101B00009B01AC01C501B4010E9463366B017C01ED
:101B100020E030E0A9010E94593687FF03C0C12CA4
:101B2000D12C760182E3829DF001839DF00D11247A
:101B3000E650FD4FC2A2D3A2E4A2F5A2A8CEA7010F
:101B40009601C701B601C9CE019708F40895EFE9DF
:101B5000FFE03197F1F700C00000F6CF80916F00F1
:101B60008D7F80936F0080918100887F816080935A
:101B700081001092180280919906909155068F3F2E
:101B800081F42091380621110CC0903861F490E066
:101B90000E94A40D88B1837C88B98BB18F708BB9FA
:101BA00008959430A1F70C946406CF93DF930E94BC
:101BB000AE0DE5ECF2E080E3DF011D928A95E9F7D6
:101BC000C9E1D2E083E2FE0111928A95E9F7109211
:101BD000F6021092F50210923C021092680281E027
:101BE00080933D02109218020E94470680911702CE
:101BF0008F87DF91CF9108958091370684FD20C0B3
:101C000080E10E9456028091B0008F778093B000EF
:101C100085B185B990915506892F8C7221F48091F8
:101C20005906867069F0943049F480913806811124
:101C300003C086E00E9446020C94AE0D83E0FACF0A
:101C400008952F923F924F925F926F927F928F9260
:101C50009F92AF92BF92CF92DF92EF92FF920F933B
:101C60001F93CF93DF93CDB7DEB7EB970FB6F89402
:101C7000DEBF0FBECDBF8091590680FD53C290914B
:101C80003C0280913D02981709F44CC28091F50204
:101C90009091F602892B09F07EC01091590612FF2F
:101CA0005AC280911A0622E3829FC00111248650F5
:101CB0009D4F9093F6028093F5024091F50250916A
:101CC000F6025A874987452B09F42CC20091C602B7
:101CD00000FF44C21092C6021092D8021092D9029C
:101CE0001092DA021092DB02A985BA855A962D91DC
:101CF0003D914D915C915D9729833A834B835C8341
:101D000060E070E080E09FE30E9463366D837E8335
:101D10008F839887E985FA85468C578C60A071A0DF
:101D200082889388A488B58811FF05C3F2E0F093F8
:101D3000D702A50194010E94BB389B01AC01C301ED
:101D4000B2010E9463356B017C0120E030E0A90103
:101D50000E94593687FFDEC229813A814B815C811E
:101D6000CA01B9010E946435A30192010E94BB38E7
:101D70009B01AC01C501B4010E9463350E945A3930
:101D80006093E4027093E5028093E6029093E70289
:101D900018601093590680916802A82FB0E0BA8BA2
:101DA000A98B27E02A9FF0012B9FF00D1124E25C04
:101DB000FD4F8091C50284834091F5025091F60257
:101DC0005A874987DA015E96BC91BDA3FA01F78D67
:101DD000FEA3DA019096BC91BFA3FA01F1A1F8A786
:101DE0002091D3023091D4024091D5025091D60275
:101DF0006DA17EA18B2F9F2F0E94633569AB7AABBB
:101E00008BAB9CAB20E030E0A9010E94593687FFE4
:101E100004C019AA1AAA1BAA1CAA2091E0022D8BA1
:101E20003091E1023E8B4091E2024F8B5091E302F0
:101E3000588F8091E8028D8F9091E9029E8FA0913A
:101E4000EA02AF8FB091EB02B8A3E091D702ED8721
:101E5000F091EC02F9A72091ED022AA73091EE0251
:101E60003BA74091EF024CA77090DC026090DD022E
:101E70005091DE025BAF8091DF028AAF9091D80271
:101E80009DA7A091D902AEA7B091DA02BFA7E091B9
:101E9000DB02E8ABF091E402FEAB2091E5022FAB50
:101EA0003091E60238AF4091E70249AF29A53AA543
:101EB0004BA55CA56D8D7E8D8F8D98A10E945936A6
:101EC0008111C8C352E05DAB9DA1998FAEA1AA8FCD
:101ED000BFA1BB8FE8A5EC8F8EE3C82E83ECD82E74
:101EE0008EE2E82E89E3F82E212C312C2101A70166
:101EF000960129A33AA34BA35CA35D85513009F455
:101F00004AC4A985BA85513008F4D6C3533009F0C4
:101F100078C45A962D913D914D915C915D97C70182
:101F2000B6010E94BB384B015C012D893E894F8967
:101F3000588D672D762D8BAD9AAD0E9463359B0130
:101F4000AC01C501B4010E947B3887FD8DC32D8D86
:101F50003E8D4F8D58A16DA17EA18FA198A50E94A5
:101F600063359B01AC010E9464356B017C012D89B6
:101F70003E894F89588D672D762D8BAD9AAD0E9485
:101F800064359B01AC01C701B6010E9463366B0149
:101F90007C017D886E88BF89BBAFE88DEAAF0D8D6F
:101FA0001E8DFF8DF98328A12D8331E03D87A70188
:101FB0009601C201B1010E9464351B012C0129A1C7
:101FC0003AA14BA15CA10E94593687FF87C4A201A8
:101FD000910169A17AA18BA19CA10E9463356B013B
:101FE0007C01980149815D816DA57EA58FA598A989
:101FF0000E94593687FD31C33D853093D702872D26
:10200000962DABADBAAD8093DC029093DD02A09328
:10201000DE02B093DF02E0916902F0916A028189E9
:10202000811104C09091590693FF31C0A985BA85EA
:1020300051969C915197907309F470C49E96CD90DF
:10204000DD90ED90FC90D1978823B1F02091F002C3
:102050003091F1024091F2025091F302672D762DFA
:102060008BAD9AAD0E94BB389B01AC01C701B60194
:102070000E94BB386B017C01C701B6010E942C0A8B
:102080008093F40280915906877F8093590627E058
:10209000E989FA892E9FC0012F9F900D1124AC0170
:1020A000425C5D4F3A018091F402DA0116968C93FE
:1020B0002091CF023091D0024091D1025091D202B2
:1020C000B80189819D810E94BB3869877A878B8797
:1020D0009C870E9442366B017C016091CB0270911B
:1020E000CC028091CD029091CE020E9442364B01EB
:1020F0005C01A70196010E9463350E94DC366D8762
:102100007E878F87988B2D853E85F30131832083D1
:10211000232B09F00EC48091590681FF0AC4816007
:1021200080935906EB960FB6F894DEBF0FBECDBF75
:10213000DF91CF911F910F91FF90EF90DF90CF90A3
:10214000BF90AF909F908F907F906F905F904F90D7
:102150003F902F9008950E94F603ABCD8091C50269
:102160008F5F853009F480E08093C502282F30E02E
:1021700052E1859FC0011124DC01A559BD4F7D01AD
:10218000B0936A02A0936902E985FA858089509626
:102190008C9390E080E04191519161917191D701D0
:1021A000A80FB91F689412F8440F551F661F771FB8
:1021B0001694D1F74D935D936D937C93139704968A
:1021C0008C30910541F7A985BA851C966D917D915A
:1021D0008D919C911F97B2E1B29FA001B39F500DCA
:1021E0001124FA01E559FD4F4B015C0123E0880CF5
:1021F000991CAA1CBB1C2A95D1F784869586A686B5
:10220000B7860E940B376093CB027093CC02809309
:10221000CD029093CE02E985FA85268D378D40A1B7
:1022200051A10E9463369B01AC012093CF023093F1
:10223000D0024093D1025093D20260E070E080EA75
:102240009FE30E9463366093D3027093D40280931D
:10225000D5029093D6021092C7021092C802109233
:10226000C9021092CA0211FD02C003FF42C0609170
:10227000E4027091E5028091E6029091E70260939A
:10228000DC027093DD028093DE029093DF029B01FB
:10229000AC010E94BB38A985BA8552966D937D9397
:1022A0008D939C935597077F0093C602D701519653
:1022B0001C928091AB0681FF0FCDE985FA8581895B
:1022C00085FF0ACD22A533A544A555A560E070E0A1
:1022D00080E89FE30E9463366093F0027093F102FE
:1022E0008093F2029093F302E1E0D7015196EC93D0
:1022F000F3CCE985FA8562897389848995890E947E
:102300005A396093DC027093DD028093DE02909371
:10231000DF02CCCFC092D802D092D902E092DA028A
:10232000F092DB021092E4021092E5021092E602B3
:102330001092E7022DCD1092D7024092E8025092FF
:10234000E9026092EA027092EB0212FF6AC01092F8
:10235000E4021092E5021092E6021092E702C12C0C
:10236000D12C760189859A850E948303698B7A8BAB
:102370008B8B9C8B9B01AC010E94BB3869877A8751
:102380008B879C87A50194010E94593687FF93C0D3
:1023900029853A854B855C85C501B4010E9463356A
:1023A0002D813E814F8158850E94BB389B01AC0135
:1023B000C301B2010E9463356093E8027093E902A1
:1023C0008093EA029093EB0220E030E0A9010E94A2
:1023D000593618160CF449C032E03093D7022981DF
:1023E0003A814B815C81CA01B9010E946435A30125
:1023F00092010E94BB389B01AC01C501B4010E944F
:1024000063350E945A396093E4027093E502809329
:10241000E6029093E7028091C60288608093C6022C
:10242000B7CCE091F902EF5FE03109F4E0E0809190
:102430001A06C12CD12C76018E1751F022E32E9F63
:10244000F0011124E650FD4FC288D388E488F58856
:10245000C701B6010E945A396093E4027093E50205
:102460008093E6029093E7027DCFA70196016985EC
:102470007A858B859C850E9463352D813E814F81B5
:1024800058850E94BB386093EC027093ED028093F4
:10249000EE029093EF0289899A89AB89BC89809377
:1024A000E0029093E102A093E202B093E30293E092
:1024B0009093D7026DCCA7019601C501B4010E948B
:1024C00063352D813E814F8158850E94BB38A30121
:1024D00092010E94643520E030E040E05FE30E941A
:1024E000BB386D877E878F87988B20E030E0A9010D
:1024F0000E947B3818160CF094C0A30192016D85E0
:102500007E858F8598890E94593687FF88C0A701EC
:10251000960169857A858B859C850E9463352D811E
:102520003E814F8158850E94BB389B01AC012093AE
:10253000EC023093ED024093EE025093EF026D8572
:102540007E858F8598890E947B381816BCF529896D
:102550003A894B895C892093E0023093E1024093F1
:10256000E2025093E302A501940169857A858B8587
:102570009C850E945936811104C031E03093D70206
:1025800007CCA501940169857A858B859C850E947D
:1025900063352D813E814F8158850E94BB389B0158
:1025A000AC01C301B2010E9463356093E8027093ED
:1025B000E9028093EA029093EB02EACB8D859E8537
:1025C000AF85B8898093E8029093E902A093EA026C
:1025D000B093EB028093EC029093ED02A093EE0295
:1025E000B093EF0229813A814B815C81CA01B90124
:1025F0000E9464352D853E854F8558890E94BB38E1
:10260000A70196010E9464350E945A396093E00246
:102610007093E1028093E2029093E302B9CB92E0DF
:1026200047CF8091E4029091E502A091E602B0913B
:10263000E7021092E8021092E9021092EA02109268
:10264000EB028093E0029093E102A093E202B09348
:10265000E3029ECB81E08DAB37CC098F1A8F398195
:102660003B8F4D814C8F49CC20E030E040E05FE370
:10267000C501B4010E94BB389B01AC01672D762DCA
:102680008BAD9AAD0E946335A70196010E94BB38BD
:102690009B01AC01698D7A8D8B8D9C8D0E94633579
:1026A0008B0189839D83A5019401672D762D8BADC8
:1026B0009AAD0E9463356AC05A962D913D914D9115
:1026C0005C915D97C701B6010E94BB384B015C016C
:1026D00020E030E040E05FE30E94BB38272D362D3C
:1026E0004BAD5AAD0E946435A70196010E94BB38DC
:1026F0009B01AC01698D7A8D8B8D9C8D0E94633519
:102700008B0189839D839B01AC016D8D7E8D8F8DA7
:1027100098A10E947B3818168CF52D8D3E8D4F8D1B
:1027200058A16DA17EA18FA198A50E9463359B0140
:10273000AC010E9464356B017C012D893E894F8973
:10274000588D672D762D8BAD9AAD0E9464359B0117
:10275000AC01C701B6010E9463366B017C017D8824
:102760006E88BF89BBAFE88DEAAFFDA9FD870D8DEF
:102770001E8D2F8D298338A13D8319CCA50194018D
:10278000672D762D8BAD9AAD0E946435762E672E1F
:102790008BAF9AAF0CCC2D893E894F89588DC701DC
:1027A000B6010E94BB389B01AC01698D7A8D8B8D7F
:1027B0009C8D0E9463358B0189839D8329A53AA551
:1027C0004BA55CA50E94593687FFF1CB29A53AA5F8
:1027D0004BA55CA5698D7A8D8B8D9C8D0E94633590
:1027E0002D893E894F89588D0E9463366B017C018B
:1027F00009A51AA54BA549835CA55D8382E08D8759
:10280000D6CB5A962D913D914D915C915D97C70124
:10281000B6010E94BB384B015C01AC019B01672DE6
:10282000762D8BAD9AAD0E947B38181644F520E0CA
:1028300030E040E05FE3C501B4010E94BB389B017A
:10284000AC01672D762D8BAD9AAD0E946335A70143
:1028500096010E94BB389B01AC01698D7A8D8B8DEE
:102860009C8D0E9463358B0189839D832DA53EA598
:102870004FA558A90E947B3818160CF414CF2DA52B
:102880003EA54FA558A9698D7A8D8B8D9C8D0E9490
:1028900063359B01AC010E9464356B017C012EA95C
:1028A0003FA948AD59AD672D762D8BAD9AAD0E94ED
:1028B00064359B01AC01C701B6010E9463366B0110
:1028C0007C017EA86FA8B8ADBBAFE9ADEAAF0DA59E
:1028D0001EA5FFA5F98328A92D8369CB29A93AA9AB
:1028E0004BA95CA9B80189819D810E947B3818168B
:1028F0008CF42EE333EC4EE259E369A17AA18BA16B
:102900009CA10E94643569A37AA38BA39CA3A20116
:10291000910163CB4D854093D70271CB1092620633
:102920001092630610926406109265061092F402EB
:10293000A9CB2091C7023091C8024091C9025091A1
:10294000CA02C201B1010E9464352B013C012985F4
:102950003A854B855C85C501B4010E9463359B01B6
:10296000AC01C301B2010E9463364B015C0120EC53
:1029700031EE44E65EE40E94BB380E9442360E947B
:10298000DC36603D57E075078105910508F066C0AB
:1029900027E0A989BA892A9FF0012B9FF00D112405
:1029A000E25CFD4F158227E0A989BA892A9FF001D0
:1029B0002B9FF00D1124E25CFD4F738362838091A5
:1029C0003D02809368028F5F863009F4A1C0809336
:1029D0003D02E091F502F091F602C801A981BD81A6
:1029E000868F978FA0A3B1A3C092CB02D092CC02C6
:1029F000E092CD02F092CE0229853A854B855C8526
:102A0000C701B6010E946335A50194010E94BB383D
:102A10006093C7027093C8028093C9029093CA0260
:102A20002091D8023091D9024091DA025091DB0214
:102A3000B80189819D810E945936811120C9F09089
:102A4000590620E030E0A901B80189819D810E94EA
:102A50007B3818160CF05FC08F2D61CB603A3FE0D9
:102A6000730781059105A0F5A7E049895A89A49FBC
:102A7000F001A59FF00D1124E25CFD4FB1E0B5839C
:102A8000A7E049895A89A49FF001A59FF00D112460
:102A9000E25CFD4F2581022E04C0969587957795BF
:102AA00067950A94D2F74D855E8502C0440F551F85
:102AB0002A95E2F7518340836115710551E085073E
:102AC000910508F470CF4FEF5FEF5383428377CFC8
:102AD0006034EFE17E078105910568F447E02989BC
:102AE0003A89429FF001439FF00D1124E25CFD4FB3
:102AF00052E05583C5CF27E0A989BA892A9FF00102
:102B00002B9FF00D1124E25CFD4F33E03583B8CFED
:102B100010923D025ECFF2FC9FCF1092F60210920F
:102B2000F5029091F90280911A06891709F4A7C855
:102B300081E0890F803109F480E02091F70292133F
:102B400002C08093F7028093F90299C82F923F92B6
:102B50004F925F926F927F928F929F92AF92BF92AD
:102B6000CF92DF92EF92FF920F931F93CF93DF9359
:102B7000CDB7DEB7A4970FB6F894DEBF0FBECDBFBA
:102B800010913806112349F181E08093550686E6BD
:102B900091E00E94C807812F0E94A3070E94D607D8
:102BA00084EF91E00E94A40D1150123088F48AEC59
:102BB00092E00E94C80788EB92E00E94C8070E943A
:102BC0002E0980E10E944C028091370684FFFCCFE1
:102BD0008FB7F894109238068FBF109137061123E3
:102BE00009F479C214FF1CC081E080935606A496B4
:102BF0000FB6F894DEBF0FBECDBFDF91CF911F910E
:102C00000F91FF90EF90DF90CF90BF90AF909F908B
:102C10008F907F906F905F904F903F902F9008958E
:102C200010FFB7C08CE0ECE3F6E0DE0159960190AE
:102C30000D928A95E1F7BE01675E7F4FCE010D963A
:102C40000E949A028CE30E949B0680915506883070
:102C500009F419C108F0F4C0813009F41DC108F469
:102C60000DC1823009F41BC1843009F412C1809176
:102C70009A06282F2170922E80FF26C1809161062E
:102C8000882309F421C182E991E00E94C807CE019E
:102C90000D960E948A0780919A0681FF1DC086E8E2
:102CA00091E00E94C80790911A068091F902981746
:102CB00008F458C1815F891B0E94A3078CE20E941F
:102CC0009B068091110290911002981708F44CC154
:102CD0008058891B0E94A30781E891E00E94C807E1
:102CE000809155068C7709F441C16091DC027091A6
:102CF000DD028091DE029091DF020E946E078CE27D
:102D00000E949B0660916206709163068091640642
:102D10009091650640E00E94C4060E94D602082FEA
:102D200083B183B1F0903B06802F8F29D1F08CE7DF
:102D300091E00E94C807FF2019F080E50E949B06E1
:102D4000002379F000FF03C088E50E949B0601FF85
:102D500003C089E50E949B0602FF03C08AE50E942A
:102D60009B0680916106882309F404C181508093F9
:102D7000610680916006882309F415C18150809313
:102D800060068EE30E949B060E94D60781E00E94A7
:102D90004C02812F887E09F44EC180915506982FF0
:102DA000937009F037C18872A9F080915706807C32
:102DB00089F40E94B80482E08093590680915506F8
:102DC000803241F480E217FD0CC080915706806884
:102DD0008093570680915506811103C091E090932E
:102DE000570616FF07C085FD05C0909157069064F1
:102DF0009093570613FF05C0807E19F480E18093FD
:102E0000550615FF07C18AEC92E00E94C80786E7C5
:102E100092E00E94C8070E942E098091570687FD04
:102E2000F4C090915506903409F0ECC083FF04C0C3
:102E3000837E82608093570680E480935506E5C0C8
:102E4000803221F198F4803109F011CF809157063A
:102E500087FD1CC08AEB91E00E94C807809157064D
:102E600080FF2EC080E30E949B0601CF8034D1F00A
:102E7000803809F0FCCE89E991E002C084EC91E051
:102E80000E94C807F4CE80EC91E0FACF86EB91E087
:102E9000F7CF81EB91E0F4CF8BEA91E0F1CF85EAB7
:102EA00091E0EECF8FE991E00E94C807809157062C
:102EB00083FF02C083E3D7CF82FF04C085FFD2CF58
:102EC00081E3D1CF82E3CFCF4090F7065090F80650
:102ED0006090F9067090FA065FEDA52E56E0B52ECB
:102EE000CE0101966C01FE013D967F0100E0F501E7
:102EF00061917191819191915F0120853185428528
:102F000053850E946435F601619371938193919387
:102F10006F01023041F4A30192010E946435698778
:102F20007A878B879C87911012C0F6013497208195
:102F3000318142815381F701608171818281938166
:102F40000E946335F70160837183828393830F5FEF
:102F5000F4E0EF0EF11C033051F6911094CE8BE8A3
:102F600091E093CE8150A7CE8150B3CE60E070E067
:102F7000CB01C3CE809155068C7799F08DE180937B
:102F8000610680916006811103C081E08093600634
:102F900086E791E00E94C807CE0101960E948A0749
:102FA000E8CE89E0ECCF809155068C77F9F083E18B
:102FB0008093600681E791E00E94C80780915C06DB
:102FC0000E94A3078CE20E949B0680915D060E94EE
:102FD000A3078CE20E949B0680915E060E94A307D5
:102FE0008091B00087FD04C085B1CBCE89E0E0CFF1
:102FF00085B185B18DE691E00E94C80783E50E9406
:103000009B06BFCE903809F017CF8091570680629B
:103010008093570617FF0CC080915506813029F424
:103020008091570685608093570680E88093550607
:1030300088EE0E944C0211FF28C0812F887611F57E
:1030400080915506803441F48091570685FD04C077
:1030500084FFEAC01092550680915506882309F432
:10306000E9C084FF0FC09091570690FF0BC08031DC
:1030700009F0E0C080915F06882309F4DBC0886016
:1030800080935F0682E00E944C0212FF24C0909160
:10309000570680915506807D09F4E5C08091580659
:1030A0008111E1C097FDE1C00E94B8048091F9024E
:1030B0008093F7020E94DC048091590681FF05C0CD
:1030C00090915706916090935706897F8093590697
:1030D00084E00E944C0290913906992309F44CC077
:1030E0008FB7F894109239068FBF40915C06842FF9
:1030F00090FD84E691FD865F92FD8A5093FD8F5F7F
:1031000094FD8150893C08F088EC8A3008F48AE00C
:1031100030915D06232F95FD24E696FD22E397FD71
:1031200029E1481302C0231739F180935C062093EC
:103130005D06109260067090F90260901A06172DD5
:1031400089E9282E96E7392E26E9422E3EE7532EAE
:1031500042E3842E1611A4C0C101D201809333062C
:1031600090933406A0933506B09336060E94B804B7
:103170007092F7020E94DC0410913A06112309F4C0
:103180004BC08FB7F89410923A068FBF90915E06AD
:10319000892F10FD84E611FD865F12FD8A5013FD14
:1031A0008F5F14FD8150893C08F088EC8A3008F468
:1031B0008AE09817A1F09091550680935E069111D0
:1031C000C5C04091C6065091C7066091C80670916F
:1031D000C9068091C4060E94CB0A109260068091B5
:1031E000550615FF09C0803139F490915F069111A1
:1031F000B3C092E090935F06107C71F0882311F0C9
:10320000887351F01091C30616FFAAC01F7B812F4F
:103210000E945D091093C306809155068C7F09F4C6
:10322000E6CC0E94210EE3CC82FF16CF886080930B
:10323000570612CF109259060E94F603892B71F09F
:103240008091570686FD0AC01092570688E0809349
:1032500055060E94210E0E947F0614CF1092570639
:10326000109255060FCF97FF0AC0109259060E9480
:10327000AF090E94D50D0E94A9090E9461038091A7
:10328000570685FF08C08F7781608093570680E4DA
:10329000809355061DCF109257061092550618CFF1
:1032A000A12EB12C189DC001112486509D4F0E9463
:1032B0008303962EC72ED82E092F9101A2010E94BA
:1032C0007B388A9C70018B9CF00C1124970126504E
:1032D0003D4F790118168CF59101A201B101C2018F
:1032E0000E94BB38F701668B778B808F918F8A9C09
:1032F000C0018B9C900D11249C0126503D4F7901FB
:10330000F90122A033A044A055A0A2019101668931
:103310007789808D918D0E947B3818162CF4F701E7
:10332000268A378A408E518E1F5F103109F410E0D3
:10333000292C3C2C4D2C502E0DCF292D3C2D4D2DC4
:10334000502F692D7C2D8D2D902FCACF809159063D
:1033500088608093590641CF90FF4ECF94604ACF4A
:10336000106455CFCF92DF92EF92FF921F93CF93CD
:10337000DF930E94A61580915706882309F468C040
:103380000E94F603009709F03FC0C091C4068091E7
:10339000C306C82BC090C606D090C706E090C806EA
:1033A000F090C9068091AB0681FF03C080E20E94C5
:1033B0003402DC2FD07311E0C07C80915706882343
:1033C00009F446C090915606911142C080FF19C081
:1033D00090915506292F207C09F487C082FD1DC0DD
:1033E00010925F0640E050E0BA0180E00E94CB0AF4
:1033F00080E00E945D09809157068D7F84608093F4
:1034000057060E94A615D9CF25B1FC01C189C0730A
:10341000C6A4D7A4E0A8F1A8C5CF903821F58AECBE
:1034200092E00E94C80783E392E00E94C8070E94CE
:103430002E0940E050E0BA0180E00E94CB0A80E013
:103440000E945D090E94AE0D80915606882341F0CE
:10345000DF91CF911F91FF90EF90DF90CF90089573
:103460000E94A615F1CF903419F48F7D80935706F2
:103470008091570683FFC5CF9091C406992359F0D8
:1034800081FD09C08091AB0681FF22C08091590661
:103490008860809359068091C306882371F08091DB
:1034A000570681FD0AC08C2F0E945D0941E060E053
:1034B00070E080E89FE30E94B21C8091570681FD76
:1034C000A0CF80618093570682E00E94560299CF78
:1034D000B701A6018D2F0E94CB0A41E060E070E0A9
:1034E00080E890E40E94B21CD6CF80915F068823CA
:1034F000C9F181FF0DC08091C406882351F140E0DD
:1035000050E0BA0180E00E94CB0A10935F0679CFA9
:103510008C7009F476CF8091C406882399F08AECE8
:1035200092E00E94C8078CE392E00E94C8070E94C4
:103530002E098091AB0681FF0FC0809159068860EB
:103540008093590680915F0683FF03C082E00E944A
:10355000560210925F0655CFB701A6018D2F0E942B
:10356000CB0AF0CF8091590683FF4BCFB701A6015C
:103570008D2F0E94CB0A80915906877F8093590630
:1035800040CF2F923F924F925F926F927F928F9295
:103590009F92AF92BF92CF92DF92EF92FF920F93E2
:1035A0001F93CF93DF93CDB7DEB7A2970FB6F894F2
:1035B000DEBF0FBECDBF9091560691111BC1782E74
:1035C0001E012DE0220E311C89E0D1011D928A9549
:1035D000E9F786E08D8BE6E6F6E0FC8FEB8F5F0186
:1035E0009E012A5E3F4F490110E000E0C12CD12C22
:1035F0007601872D90E09E8F8D8F802F94E00023A1
:1036000021F090E1013009F498E0D4019D934D013F
:10361000ED8DFE8D02C0F595E7958A95E2F7E0FF06
:103620001BC020E030E040EC5FEBD50194966D913B
:103630007D918D919C9197970E94BB38698F472E01
:10364000582E692EA70196010E94593687FD04C0A5
:10365000C98CD42CE52CF62C0F5F1F4FB4E0AB0EB9
:10366000B11C0330110549F68090B1069090B20666
:10367000A090B306B090B40684E0682E01E0442424
:1036800043946CE376E0CE0101960E949A02809109
:10369000AC06E82FF0E0F8A3EF8FFE0131962CE3A3
:1036A00036E03A8F298F3AA329A3512C10E030E05D
:1036B00020E0B701A60170588D8D9E8D022E02C0AC
:1036C000959587950A94E2F780FF28C05394A9A1A5
:1036D000BAA11D921D921D921C9213978F8D98A1D5
:1036E000022E02C0959587950A94E2F780FF07C0E5
:1036F000002339F0408351836283738306C0002323
:10370000C9F3C082D182E282F38286E190E08C0F1D
:103710009D1F820F931FDC018C91182B2F5F3F4F51
:10372000349689A19AA104969AA389A323303105DE
:1037300019F6652D70E090E080E00E940B370E9442
:103740005A3910935B06A50194010E94BB386D871E
:103750007E878F87988BB101CE0101960E94F30A74
:1037600094E0909359060E94210E0E947F06002348
:10377000E9F00E94D602FE01769630E020E090E06B
:103780006191462F412359F0AC01022E02C055959C
:1037900047950A94E2F740FF02C0609516232F5F19
:1037A0003F4F2330310561F710935B060E94210ED5
:1037B00080913706847309F4B6C01091370614FF60
:1037C00003C086E00E94460215FF03C087E00E9406
:1037D00046020111C3C00E94D602872119F088E079
:1037E0000E944602809138068823E9F00E94FC0D71
:1037F0000E94B219A2960FB6F894DEBF0FBECDBFDD
:10380000DF91CF911F910F91FF90EF90DF90CF90BC
:10381000BF90AF909F908F907F906F905F904F90F0
:103820003F902F90089584E00E944C020E94D50D95
:103830008091B5069091B6060E94A40D042509F466
:1038400077C020E030E040EA50E46091B706709124
:10385000B8068091B9069091BA060E94BB386B01F8
:103860007C018090AD069090AE06A090AF06B0901F
:10387000B0066A94611005CF2090AC06312CC09040
:10388000B706D090B806E090B906F090BA062601C7
:10389000370177FA709477F8709410E000E08D8D1E
:1038A0009E8D002E02C0959587950A94E2F780FFC1
:1038B00026C0AB8DBC8D8D909D90AD90BC90139724
:1038C000C101002E02C0959587950A94E2F780FF0A
:1038D00040C094962D913D914D915C919797C70171
:1038E000B6010E946435A50194010E94BB380E9474
:1038F0008838E98DFA8D60837183828393830F5FAB
:103900001F4F298D3A8D2C5F3F4F3A8F298F8B8D1A
:103910009C8D04969C8F8B8F0330110509F0BFCFCF
:103920001092590667CF812F8C7109F020CF7ECF7E
:10393000C090B706D090B806E090B906F090BA06ED
:103940008090B1069090B206A090B306B090B406F5
:1039500090CFA5019401C301B201C7CF12FF42CF9E
:1039600089E03ECF1F93CF93DF93142F20E030E008
:1039700040EA51E40E94BB380E9442360E94DC3685
:10398000EB012097C9F080915606811115C01111E5
:103990000DC00E94B2192FEF80E792E021508040C5
:1039A0009040E1F700C000002197EBCF0E94A615E0
:1039B0008091570681FFEFCFDF91CF911F9108953E
:1039C0000E9493060E94B21980915606811108C088
:1039D0000E94F603892BB1F780915506883091F348
:1039E0000895CF93DF9391E5899FE0011124DD5F76
:1039F00040E550E0BE0185E397E00E947604892B04
:103A000079F4109235070E94E01C40E550E065E330
:103A100077E0CE010E94260480E0DF91CF910895E7
:103A200081E0FBCF0E94E01C1092610608950F9385
:103A30001F93CF93C82F8B010E94E01C2DE0C29FE3
:103A4000C00111244CE050E0B8019E5FCF911F915E
:103A50000F910C9426041F93CF93DF93182FEB0143
:103A60008DE0189FB00111247E5F4CE050E0CE0144
:103A70000E947604892B71F48CE0FE0111928A95E4
:103A8000E9F7BE01812F0E94171D80E0DF91CF91E1
:103A90001F91089581E0FACFEF92FF920F931F9349
:103AA000CF93DF93CDB7DEB72C970FB6F894DEBF78
:103AB0000FBECDBF182F80FF0BC085E5E9ECF1E00C
:103AC000A6E6B6E005900D928A95E1F70E946104A2
:103AD00011FF10C0CE0101967C018CE0F70111921C
:103AE0008A95E9F700E0B701802F0E94171D0F5F4C
:103AF0000830C9F712FF14C060E080E093E00E9434
:103B0000060460E081E093E00E94060460E081E545
:103B100093E00E94060460E082E593E00E940604C0
:103B200013FF0AC060E08EEA93E00E94060460E0A2
:103B30008FEA93E00E9406042C960FB6F894DEBF3D
:103B40000FBECDBFDF91CF911F910F91FF90EF90EE
:103B50000895CF92DF92EF92FF92CF939091550606
:103B6000923079F06A017B01C82F0E94E01CB701F6
:103B7000A6018C2FCF91FF90EF90DF90CF900C9407
:103B8000CB0ACF91FF90EF90DF90CF900895FF92F6
:103B90000F931F93CF93DF938C01EB018091AB06C2
:103BA00085FF23C0F090550680E2F81611F1C80198
:103BB0000E945F028823C9F081E08093580688E064
:103BC000F8120CC00E9456020E94B219809156064B
:103BD00081110BC0809155068111F6CF0E94FC0D1A
:103BE00082E00E9446020E94B219809155068230FE
:103BF00041F10E94B21980915606811122C0909124
:103C0000F9028091F802981303C00E949306F1CF45
:103C1000BE01C8010E94F30A811113C08091AB0656
:103C200081FF0FC0888584FF0CC04C815D816E814F
:103C30007F8180E1DF91CF911F910F91FF900C94D4
:103C4000A91DDF91CF911F910F91FF9008952F92A1
:103C50003F924F925F926F927F928F929F92AF921C
:103C6000BF92CF92DF92EF92FF920F931F93CF9369
:103C7000DF93CDB7DEB7CC54D1090FB6F894DEBFD1
:103C80000FBECDBFEBEFF6E08AE3DF011D928A9510
:103C9000E9F78BE0EBEBF6E0ACEFB6E001900D92CC
:103CA0008A95E1F7809135078432A1F01A8E1BA224
:103CB000312C212C1EA61DA610E01B8E1F8EEE247B
:103CC000E394F12CAAE0AA2EB12CB1E68B2EB3E03E
:103CD0009B2E4EC181E08093FC061092FD0683E08E
:103CE0008A8FB1E0BBA3E4CF9FEB9D0D9A3110F01A
:103CF0000C949E2B8F5F8A8FBE016A5E7F4FCE0130
:103D00004A960E948701882311F40C94A12B4E88B7
:103D10005F88688C798CC301B2010E949E390E9431
:103D2000DC36062F70E090E080E00E940D379B01AA
:103D3000AC01C301B2010E94633520E030E048ECE1
:103D400052E40E94BB380E9428390E94DC36CB0125
:103D5000E7E4DE1629F1FDE4DF1609F465C1EAEBBC
:103D6000ED0DE53108F02CC00E2E000CFF0BE554D4
:103D7000F14E0C94063A5D20E01EE01E8A2095204C
:103D8000A020AB20E01EAF20E01EBD20E01EC7201B
:103D9000D120DB20E01EE01EE01EEB20F8200521F4
:103DA000083209F4DDC030F5043160F4013108F067
:103DB00098C0043009F474C0B0F00A3009F468C047
:103DC00084E196C00C3109F463C040F40631C0F7B9
:103DD00025E1201B2093FE0626E087C00E3109F462
:103DE00057C0063269F74F8D41110C94A42BA2E005
:103DF000AF8F28C00D3309F4AEC0E0F4053309F4E9
:103E00004FC088F40B3211F00133D1F6BF8DB111E0
:103E10000C94A42B013309F095C010920107E3E044
:103E2000EF8F28E04FC00C3358F60653009302077B
:103E300029E05BC00C3508F50A3508F073C0003581
:103E400009F0BECF0093FC0621E0063209F04DC018
:103E50008431910551F08E31910539F08832910508
:103E600021F08233910509F0ABCFB5010E94D03922
:103E700066576093FC0621E025C00C3549F00F35EC
:103E800008F09ECF2EE5201B2093FD0625E02DC0D7
:103E9000009731F42F8D21110C94A42B31E03F8F2A
:103EA0000093FB06202F2D7F2C3119F020E00C35DC
:103EB000E1F4009719F00A9709F082CF600F609340
:103EC000FB0620E0C70102C0880F991F2A95E2F780
:103ED0002DA53EA528233923232B09F443C085E1D2
:103EE00007C001510093000722E0892B59F387E1B5
:103EF000C45BDF4F0FB6F894DEBF0FBECDBFDF91BE
:103F0000CF911F910F91FF90EF90DF90CF90BF90D6
:103F1000AF909F908F907F906F905F904F903F9069
:103F20002F900895892B29F40A550093FF0623E06A
:103F3000C9CF6A30710509F043CF0A3509F440CF83
:103F400024E0C0CF0A9709F03BCFF1E0F0930107DE
:103F500023E02F8F66CF892B09F032CF2AE0B2CF32
:103F600027E0C3CFADA5BEA5A82BB92BBEA7ADA793
:103F70008A8DE82FF0E0EB5CF84FD080D110B4CE02
:103F8000BB8DBB2329F0EF8DE11102C0F2E0FF8F62
:103F900025FE0FC08091180790911907A0911A076C
:103FA000B0911B0781389649A849B10514F00C94CB
:103FB000B02B3BA1332309F435C120FE45C18091CC
:103FC000FE068130B1F423E333E34BEC51E460911E
:103FD0000707709108078091090790910A070E94CE
:103FE000BB38609307077093080780930907909385
:103FF0000A0730FC10C08091C6069091C706A091B8
:10400000C806B091C9068093240790932507A09312
:104010002607B09327078091FB06843009F02FC153
:1040200026FC2BC18CE164CF892B09F060CF0630D0
:1040300050F4033098F00430D9F080E10530C9F431
:104040001092050718C0083008F4BACE0A3048F1BB
:104050000E3109F0B5CE0093030704C0002321F010
:104060000130C9F78BE008C0B3E0B0930307FACF83
:1040700080E2809305078CE0F70102C0EE0FFF1F7E
:104080008A95E2F7CF012DA53EA52E233923232BB8
:1040900009F025CF2DA53EA52E2B392B3EA72DA708
:1040A00067CF093039F0809104078064809304075A
:1040B0008DE0E2CF10920407FBCF409207075092A9
:1040C00008076092090770920A0780E06701082ECE
:1040D00002C0CC0CDD1C0A94E2F7960122213321A8
:1040E000232B11F00C94AA2BD40102C0B595A795EF
:1040F0008A95E2F7A0FF0BC020E030E0A901C301E0
:10410000B2010E94593687FF02C00C94AD2B2C28B7
:104110003D282ECF40920B0750920C0760920D075E
:1041200070920E07116081E0D1CF40920F0750923C
:1041300010076092110770921207126082E0C6CFDA
:104140004092130750921407609215077092160759
:10415000146083E0BBCF0093170784E0B7CFC3019F
:10416000B2010E94D53660931807709319078093A7
:104170001A0790931B0785E0A9CF40921C07509225
:104180001D0760921E0770921F0786E09FCF409226
:10419000200750922107609222077092230787E040
:1041A00095CF40922407509225076092260770927F
:1041B000270788E08BCF20E030E04FE753E4C301CE
:1041C000B2010E947B38181614F40C94A72B0093AC
:1041D000280789E07BCF4092290750922A076092F6
:1041E0002B0770922C073B8D31603B8F8AE06ECF9E
:1041F00040922D0750922E0760922F077092300741
:104200004B8D42604B8F8BE061CF409231075092D3
:10421000320760923307709234078B8D84608B8FE6
:104220008CE054CF8091FD06813081F44F8D423077
:1042300009F0DFCE8091FC06803509F4DACE8823C0
:1042400009F4D7CE20FCD5CE86E152CE8091BC06B3
:104250008111CFCE20FCB3CE8091CA069091CB06BF
:10426000A091CC06B091CD068093070790930807E4
:10427000A0930907B0930A07BCCEE89426F8809172
:104280000007882359F0813009F4BBC022961FAE85
:104290002297A2E0ABAFB1E0B9AF07C082E02296AF
:1042A0008FAF229791E09BAF19AE8091FE068130CF
:1042B00071F5EBEFCE2EE6E0DE2EF12CE12C2B8D0E
:1042C000A22EB12CC5010E2C02C0959587950A949B
:1042D000E2F780FF12C023E333E34BEC51E4D60155
:1042E0009E966D917D918D919C91D1970E94BB3846
:1042F000F60166A777A780AB91ABFFEFEF1AFF0A35
:1043000024E0C20ED11C33E0E316F104D9F64F8D40
:10431000433049F480910107813029F48B8D84303A
:1043200011F00C94B32B8CE0EFEDF6E0DE0111966A
:1043300001900D928A95E1F7ADA5BEA5B1FD69C0CA
:104340000091FB060A3009F478C00C3509F419C154
:104350009F8D933009F43FC0AB8DAA23E1F1B0915A
:10436000FF06BFA38091F7069091F806A091F90689
:10437000B091FA0689A79AA7ABA7BCA79BEBA92E79
:1043800096E0B92E2BEFC22E26E0D22EF12CE12C96
:104390009B8D892E912CC4010E2C02C0959587957A
:1043A0000A94E2F780FD5DC1F501808D918DA28DAB
:1043B000B38DF60186A797A7A0ABB1ABFFEFEF1ABD
:1043C000FF0A24E0A20EB11C34E0C30ED11C43E06E
:1043D000E416F10401F70E3109F494C1053309F430
:1043E000B8C16BE077E086E00C3109F02DC10E9486
:1043F0002B1D882301F18B8D811188C119A61F8E79
:10440000A9C0E1E02296EFAF22971BAEF2E0F9AF30
:104410004CCF80910207873010F08DE169CD9091EB
:10442000C106891709F48CCFBE016F5F7F4F0E94D0
:104430002B1D811185CF87E05BCDBB8DB11102C0F3
:104440008AE156CDC10180759927892B09F4EACDFF
:1044500060911C0770911D0780911E0790911F07A6
:104460000E949E390E94DC366730B8F680911707AB
:10447000843129F0823009F0A3CC27FCA1CC66233B
:1044800009F474C0615069A76BE077E089A50E94C8
:104490002B1D882381F2009117074090F70650905A
:1044A000F8066090F9067090FA067BEFC72E76E06A
:1044B000D72EF12CE12C3B8D232F30E038A72FA3F2
:1044C0008FA198A50E2C02C0959587950A94E2F7C6
:1044D00080FF33C0D6019E968D909D90AD90BC908C
:1044E000D197043109F046C0F701EE0FFF1FEE0F20
:1044F000FF1FE554F94F20A931A942A953A9608DA6
:10450000718D828D938D0E946335A50194010E9467
:104510006335F601608B718B828B938BF2E0EF1227
:104520000CC0A30192010E9463356093130770933E
:1045300014078093150790931607BFEFEB1AFB0A39
:10454000E4E0CE0ED11CF3E0EF16F10409F0B8CF91
:104550002FEA22228091FC068FA3803509F000C14A
:104560009B8D992309F406C18FE1C2CCE09102072B
:10457000E9A78ACF50968D929D92AD92BC925397A7
:10458000DCCF3B8D332309F45BCF4090F70650908E
:10459000F8066090F9067090FA064BEB842E46E020
:1045A000942ECE0101967C015BEFA52E56E0B52E30
:1045B000D12CC12CA32FB0E0B8A7AFA38FA198A591
:1045C0000C2C02C0959587950A94E2F780FF3EC0B7
:1045D000F7012081318142815381D40158966D9138
:1045E0007D918D919C915B970E946335F50126A585
:1045F00037A540A951A90E946335D5019E966D93B8
:104600007D938D939C93D197B2E0CB120CC0A30104
:1046100092010E9463356093310770933207809353
:10462000330790933407FFEFCF1ADF0A24E0820E9E
:10463000911C34E0E30EF11C44E0A40EB11C83E0B5
:10464000C816D10409F0BACF19A684CFF40180A905
:1046500091A9A2A9B3A9F50186A797A7A0ABB1AB71
:10466000E2CF053309F4AACED6019E964D905D9017
:104670006D907C90D197BFA1B11133C0F701EE0FBF
:10468000FF1FEE0FFF1F21E030E02C0F3D1FE20F58
:10469000F31FD501D0962D913D914D915C91D3970B
:1046A00060817181828193810E946435A3019201AE
:1046B0000E946435F60166A777A780AB91ABF2E064
:1046C000EF127CCE29A53AA54BA55CA50E946435C6
:1046D00060933107709332078093330790933407C8
:1046E0006DCEA3019201D50158966D917D918D916A
:1046F0009C915B970E946435F60166A777A780AB13
:1047000091AB5CCE6BE077E087E071CEABEBB6E0CF
:10471000EBEFF6E090E080E04B8D242F30E0A90134
:10472000082E02C0559547950A94E2F740FD0AC04D
:1047300058964D915D916D917C915B97408B518B1B
:10474000628B738B0196149634968330910539F7FA
:104750007BCF8091FC06823008F476CF8EE1C8CB07
:10476000AF8DA23039F4BFA1B11171C0EB8DEE2332
:1047700009F48BC02BA12170EBA1C101E0FFD6C2CF
:104780008E7DFF8DF111937E892B11F00C94BC2B43
:104790008E01035F1F4F89E0D8011D928A95E9F7CA
:1047A000222309F4C6C28DA59EA5867B892B09F01C
:1047B000E6C78091FB06853311F08111E0C7809137
:1047C000C6069091C706A091C806B091C906898B0C
:1047D0009A8BAB8BBC8B8091C4069091C306892BBE
:1047E00040910707509108076091090770910A07E7
:1047F0004D875E876F87788B84608D8B8091AB0649
:1048000085FF06C089E297E00E945F028111BAC766
:10481000B80189E297E00E94C71D80915506811179
:104820000BC00E94F603892B39F080E28093550675
:104830000E94210E0E947F068CE0E9E2F7E0A3EDE2
:10484000B6E001900D928A95E1F780E051CB20E02F
:1048500030E0A9016091070770910807809109076E
:1048600090910A070E945936882309F4EDCCFFA1E4
:10487000FC38B9F060F4F23059F1F33061F1F13005
:1048800009F078CF3B8D311175CF1F8E73CF2FA1DB
:104890002E3839F018F02F3809F06CCF9BA19061B9
:1048A0009BA38FA18E58823018F4ABA1A860ABA354
:1048B000BB8DBB2309F4C4CD4CE050E069E277E046
:1048C00083ED96E00E94263A892B09F053CF6DC004
:1048D0004BA144604BA38B8D882309F4B1CDB9ADB6
:1048E000AB2FB0E0BAABA9ABFBADEF2FF0E0FEAB66
:1048F000EDAB81E090E07C0109AC02C0EE0CFF1C46
:104900000A94E2F70BAC02C0880F991F0A94E2F7F1
:10491000E82AF92A2B8D822F90E08E219F21892B66
:1049200009F424C7FD01EE0FFF1FEE0FFF1FE55036
:10493000F94FAA0FBB1FAA0FBB1FAD52B94F2D9144
:104940003D914D915C9166A577A580A991A90E94A2
:1049500063352B013C01EDA9FEA9EE0FFF1FEE0F01
:10496000FF1FE550F94FADA9BEA9AA0FBB1FAA0FA3
:10497000BB1FAD52B94F2D913D914D915C9166A5F4
:1049800077A580A991A90E9463354B015C0127FEA0
:10499000FFC0E89427F84CE050E069E277E083ED4F
:1049A00096E00E94263A892B11F481E2A1CA609117
:1049B0002007709121078091220790912307209171
:1049C000FE06213071F423E333E34BEC51E40E9403
:1049D000BB38609320077093210780932207909340
:1049E00023078091200790912107A0912207B09181
:1049F000230721968CAF9DAFAEAFBFAF2197A30128
:104A00009201C301B2010E94BB3829966CAF7DAF01
:104A10008EAF9FAF2997A5019401C501B4010E94F3
:104A2000BB382D966CAF7DAF8EAF9FAF2D9720E03A
:104A300030E040E850E421966CAD7DAD8EAD9FAD89
:104A400021970E94BB3821962CAD3DAD4EAD5FAD98
:104A500021970E94BB3829962CAD3DAD4EAD5FAD80
:104A600029970E9463352D962CAD3DAD4EAD5FADBF
:104A70002D970E9463356B017C0120E030E0A90195
:104A80000E94593687FD75C6C701B6010E945A3982
:104A90006B017C012D962CAD3DAD4EAD5FAD2D97DC
:104AA00029966CAD7DAD8EAD9FAD29970E94643582
:104AB0000E945A399B01AC01C701B60190580E946F
:104AC00063366B017C019FA1933021F4F7FAF094D7
:104AD000F7F8F09420E030E0A90121966CAD7DADAF
:104AE0008EAD9FAD21970E94593687FF13C0F7FA0C
:104AF000F094F7F8F09421968CAD9DADAEADBFADBE
:104B00002197B0588093200790932107A093220704
:104B1000B093230709A91AA9000F111F000F111F35
:104B2000055F184FA7019601C501B4010E94BB386B
:104B30009B01AC01C301B2010E94633520E030E06B
:104B400040E05FE30E94BB38D8016D937D938D9365
:104B50009C9313970DA91EA9000F111F000F111F81
:104B6000055F184FA7019601C301B2010E94BB382F
:104B7000A50194010E94643520E030E040E05FE34D
:104B80000E94BB38F8016083718382839383F2CDE6
:104B9000C12ED12CE122FD2083E2EF2809F4A8C91F
:104BA000F1EF2F228091FE06813041F50BEF16E0E8
:104BB000F12CE12CC6010E2C02C0959587950A9424
:104BC000E2F780FF12C023E333E34BEC51E4D8015A
:104BD00050966D917D918D919C9153970E94BB3819
:104BE000F801608B718B828B938BFFEFEF1AFF0ABA
:104BF0000C5F1F4F23E0E216F104E1F6E9A9FAA9E0
:104C0000EE0FFF1FEE0FFF1FE55FF84FC080D18052
:104C1000E280F380A7019601C301B2010E946335CF
:104C20002B013C01EDA9FEA9EE0FFF1FEE0FFF1FA8
:104C3000E55FF84F80819181A281B38189AB9AAB06
:104C4000ABABBCAB9C01AD01C501B4010E946335A7
:104C50004B015C01A3019201C301B2010E94BB3868
:104C60002B013C01A5019401C501B4010E94BB3890
:104C70009B01AC01C301B2010E9464350E945A3904
:104C80004B015C01A7019601C701B6010E94BB3828
:104C90006B017C0129A93AA94BA95CA9CA01B901F8
:104CA0000E94BB389B01AC01C701B6010E9464356C
:104CB0000E945A396B017C01C0922007D0922107D3
:104CC000E0922207F0922307AC019B01C501B401D9
:104CD0000E9463354B015C01E894B7F82AE037ED98
:104CE00043EA5BE3C501B4010E947B3818160CF05F
:104CF00041CD20E030E040E05FE3C501B4010E9417
:104D00007B3818160CF451CE2FE632E143E85AE313
:104D1000C701B6010E94BB389B01AC01C501B401BB
:104D20000E947B3818160CF025CD3FCE8E7D9C7FDF
:104D300028CD8091AB06F090C40681FF12C08FA1F0
:104D40008150833018F0BBA1B064BBA3EB8DEE2380
:104D500009F45BC1FF8DF23009F057C12BA1206827
:104D60002BA38091180790911907A0911A07B09171
:104D70001B078093CF069093D006A093D106B093E3
:104D8000D2068091FD068093BC06882311F088E04E
:104D90008D8B8091070790910807A0910907B0912A
:104DA0000A078093CA069093CB06A093CC06B093D3
:104DB000CD068D879E87AF87B88B80902407909013
:104DC0002507A0902607B0902707A50194016091C0
:104DD000C6067091C7068091C8069091C9060E94C8
:104DE00059369BA19074E92E811103C0ABA1A5FF98
:104DF0001FC0FF2069F0BBA1B7FD0AC040E050E032
:104E0000BA01E11002C0B501A4018F2D0E94A91DB5
:104E10008091240790912507A0912607B09127073C
:104E20008093C6069093C706A093C806B093C906A0
:104E3000E1100CC08091C6069091C706A091C806EB
:104E4000B091C906898B9A8BAB8BBC8B809128075C
:104E50008093CE06809105079091C406981751F073
:104E600049895A896B897C890E94A91D809105070F
:104E70008093C4068D899091C406892B8D8BF09008
:104E800004078091C3068F1569F080915506823022
:104E900029F00E94E01C8F2D0E945D09809104077B
:104EA0008093C3068D899091C306892B8D8B809149
:104EB000FB06843099F480915506823079F0C090D9
:104EC0001C07D0901D07E0901E07F0901F070E945E
:104ED000E01C40E0C701B6010E94B21C80910007AF
:104EE0008093BF068091FE068093BD06EF8DE33070
:104EF00071F5809101078093C006811108C010925E
:104F00003107109232071092330710923407C09085
:104F10003107D0903207E0903307F0903407A701B3
:104F200096016091F7067091F8068091F9069091CC
:104F3000FA060E945936882351F0C092F706D092A3
:104F4000F806E092F906F092FA060E94121D80918E
:104F500002079091C106981769F08093C1068CE012
:104F6000FE013196AFEDB6E001900D928A95E1F722
:104F70000E94121D8091FF068093BE068091FB0661
:104F8000863209F496C008F057C08C3109F477C016
:104F90008E3109F474C08A3009F45BC08091FC063C
:104FA0008093BB068035B1F0BF8DB23099F481306B
:104FB00009F093C0BE01635F7F4F89E297E00E94D2
:104FC000C71D8CE0E9E2F7E0A3EDB6E001900D9299
:104FD0008A95E1F7809103078093C206882311F434
:104FE0000C94781F0E94E01C8091C2069091550697
:104FF000833009F06CC3923029F088E00E94560299
:105000000E94B2191092C20620CC30E1F312A9CE50
:105010009BA190748091BB068150833038F4992312
:1050200009F49FCE4BA140624BA39BCE911199CE28
:105030008BA180628BA395CE8C3509F440C0863657
:1050400009F443C0883209F0A9CF63ED76E087E028
:1050500033C06BE077E089A50E94171D8091C106DF
:10506000F9A5F8139BCF8CE0EBE0F7E0AFEDB6E0ED
:1050700001900D928A95E1F70E94121D8FCF8D89C4
:1050800081608D8B2F8D222329F0B80189E297E072
:105090000E94C71DB8018BE097E00E94C71D8CE0FD
:1050A000EBE0F7E0A3EDB6E001900D928A95E1F711
:1050B00075CF63ED76E086E00E94171D6FCF8CE020
:1050C000E9E2F7E0ABEEB6E0D3CFEBEEF6E08CE052
:1050D000DF011D928A95E9F7CFCF811105C08D8937
:1050E00081608D8BB80169CF8250823008F097C201
:1050F0008091200790912107A0912207B09123076A
:105100008F8F98A3A9A3BAA3A9AD94E0A99F70011A
:105110001124F701ED52F94FF8A7EFA39701255F8E
:10512000384F3AA729A7D9014D905D906D907C909A
:105130002081318142815381C301B2010E946435D3
:105140006DA77EA78FA798ABEBADB4E0EB9F800176
:10515000112498012D52394F3AAF29AFC801855F0C
:10516000984F9CAF8BAFDC018D909D90AD90BC9023
:10517000F9012081318142815381C501B4010E942E
:10518000643569AB7AAB8BAB9CAB77FA709477F8EC
:105190007094D501C401B0588B8F9C8FAD8FBE8F9A
:1051A000F701E75DF84F2DA53EA54FA558A96081F1
:1051B0007181828193810E9463356B017C01F801CA
:1051C000E75DF84F29A93AA94BA95CA960817181D3
:1051D000828193810E9463354B015C01A701960196
:1051E000C301B2010E94BB386DAB7EAB8FAB98AFF1
:1051F000A50194016B8D7C8D8D8D9E8D0E94BB3899
:105200009B01AC016DA97EA98FA998AD0E94643560
:105210006DAB7EAB8FAB98AFA5019401C301B2011A
:105220000E94BB384B015C01A70196016B8D7C8D00
:105230008D8D9E8D0E94BB389B01AC01C501B401D0
:105240000E9463352DA93EA94FA958AD0E94E335B0
:105250006B017C019BA192FF68C12DEB37E346E017
:1052600055EBC701B6010E947B3887FD0AC02BEDC4
:105270003FE049EC50E4C701B6010E9463356B0181
:105280007C0180909F069090A006A090A106B0900F
:10529000A2062F8D38A149A15AA1CA01B9010E94C5
:1052A0006435A50194010E946335A50194010E9413
:1052B000BB380E945A394B015C0120E030E040E0ED
:1052C0005FE3C701B6010E94BB382F8D38A149A109
:1052D0005AA10E94BB389F77A50194010E946336B2
:1052E0000E9448370E94DC367EAB6DABDB01AB2BF6
:1052F00009F460CE1D8990E080E00E940B374B01DD
:105300005C0113FF0EC0AC019B016D857E858F850E
:1053100098890E94BB386D877E878F87988B177F0F
:105320001D8BA5019401C701B6010E9463366BA3D2
:105330007CA38DA39EA32296EFAD2297B4E0EB9FB2
:10534000C00111248C010D52194F875D984FD8016F
:105350002D913D914D915C91FC0160817181828123
:1053600093810E946335A50194010E9463362996BA
:105370006CAF7DAF8EAF9FAF29972BA13CA14DA104
:105380005EA1CA01B9010E94BB389B01AC0160E07B
:1053900070E080E090E40E9463356B017C012BEAB1
:1053A0003AEA4AE25EE36BA17CA18DA19EA10E9434
:1053B000BB384B015C0120E030E040E850E4C7011D
:1053C000B6010E9464359B01AC01C501B4010E9485
:1053D000BB3821966CAF7DAF8EAF9FAF219720E099
:1053E00030E040E05FE3C701B6010E94BB3825967C
:1053F0006CAF7DAF8EAF9FAF25971F8E2224239475
:10540000312CEDA9FEA9E215F30509F4D3CDFF8DEA
:10541000FC3008F09EC0A301920121966CAD7DADD9
:105420008EAD9FAD21970E94BB386B017C012B8D07
:105430003C8D4D8D5E8D25966CAD7DAD8EAD9FAD59
:1054400025970E94BB389B01AC01C701B6010E94A1
:1054500064357B016C01A301920125966CAD7DAD95
:105460008EAD9FAD25970E94BB384B015C012B8D03
:105470003C8D4D8D5E8D21966CAD7DAD8EAD9FAD1D
:1054800021970E94BB389B01AC01C501B4010E9469
:1054900063352B013C012F8D2F5F2F8F4701560164
:1054A0008B8E9C8EAD8EBE8EA30192016DA57EA5C6
:1054B0008FA598A90E946435EFA1F8A56083718338
:1054C000828393832B8D3C8D4D8D5E8D69A97AA946
:1054D0008BA99CA90E946435A9ADBAAD6D937D934B
:1054E0008D939C93139729962CAD3DAD4EAD5FAD3A
:1054F0002997F80160817181828193810E946435CE
:10550000D8016D937D938D939C931397BE01635F38
:105510007F4F83ED96E00E94C71D80915606811152
:1055200050CDBFEF2B1A3B0A6CCF2DEB37E346E093
:1055300055E3C701B6010E94593618160CF4A1CEE6
:105540002BED3FE049EC50E4C701B6010E94643501
:1055500096CEB10190E080E00E940B372BA13CA1D8
:105560004DA15EA10E94BB386B017C010E945E369A
:105570006B8F7C8F8D8F9E8FC701B6010E944C3937
:105580004B015C01A9A5BAA5CD90DD90ED90FC90F2
:10559000F7FAF094F7F8F094ABADBCAD8D919D9116
:1055A0000D90BC91A02D8F8F98A3A9A3BAA3A7019A
:1055B00096016B8D7C8D8D8D9E8D0E94BB382B014D
:1055C0003C012F8D38A149A15AA1C501B4010E9407
:1055D000BB389B01AC01C301B2010E9464352B01B1
:1055E0003C01A7019601C501B4010E94BB386B01C3
:1055F0007C012F8D38A149A15AA16B8D7C8D8D8D99
:105600009E8D0E94BB389B01AC01C701B6010E9470
:1056100063356B8F7C8F8D8F9E8F1F8E45CF8D89CD
:1056200084608D8B80915506823009F4CACC0E942B
:10563000E01C809156068111CDCCFBA1F071FF2EAC
:1056400010925A0610923B0683B1B80189E297E0A6
:105650000E94C71D81E08093540682E00E9456029A
:105660000E94B219809156068111B4CC80915506E2
:105670008111F6CF80915406813029F5FF20F9F091
:105680008CE0ECE3F6E0A8E4B6E001900D928A9598
:10569000E1F71092540610923B060E94B2190E9444
:1056A000D50D0E94AF090E9461030E9433098091C9
:1056B0005A06882309F485CC0E94A9098BCC85E081
:1056C0000E944602E6CF81E080935A06E2CF81E055
:1056D0008093BB061092BF061092BE061092BC06C5
:1056E0001092C1061092C4061092C30684E68093FD
:1056F0005C0680935D0680935E069230A1F06FEDAC
:1057000076E080E00E942B1D882311F40C941B226C
:105710000E94121D40E050E0BA0180E00E94CB0AD6
:1057200080E00E945D098AEC92E00E94C80781E651
:1057300092E00E94C8070E942E0964CC81E00C947C
:10574000781F82E00C94781F88E10C94781F86E221
:105750000C94781F89E10C94781F84E00C94781FD6
:105760008BE10C94781F85E20C94781F80E20C94F6
:10577000781F82E20C94781F84E20C94781F80E1F9
:105780000C94781F8FE00C94781FCF93DF93C0E0C8
:105790008C2F0E94F11C811114C0109235078EE3EA
:1057A0000E949B060E94B7068AE30E949B0687E040
:1057B0000E94DA07C13019F4DF91CF910895C1E05A
:1057C000E7CF809135078823A9F30E94271ED82FA1
:1057D0008EE30E949B060E94B7068AE30E949B0606
:1057E0008D2F0E94E607E6CF1F920F920FB60F9201
:1057F00011248F9383B18F910F900FBE0F901F9044
:1058000018951F920F920FB60F9211242F933F936A
:105810004F935F936F937F938F939F93AF93BF93B8
:10582000EF93FF9380915506813049F080913806BF
:10583000811105C00E94FC0D81E00E944602FF918B
:10584000EF91BF91AF919F918F917F916F915F91F8
:105850004F913F912F910F900FBE0F901F90189571
:105860001F920F920FB60F92112415BC0F900FBE0E
:105870000F901F9018951F920F920FB60F92112440
:105880000F931F932F933F934F935F936F937F9348
:105890008F939F93AF93BF93EF93FF9380911802E1
:1058A000811144C22091270222FF0DC08091140271
:1058B000909115023091280235FF20C201969093F5
:1058C0001502809314028091140290911502877042
:1058D0009927909315028093140223FF0EC0209104
:1058E0001202309113024091280246FF09C22F5F35
:1058F0003F4F3093130220931202209112023091F5
:10590000130227703327309313022093120228B119
:10591000237C880F991FFC01E05FFE4F8081822B62
:1059200088B98BB1E0911202F0911302EE0FFF1FC4
:10593000E050FF4F8F709081892B8BB980912602A8
:1059400086BD82E085BD81E08093180278948091C5
:105950003A0290913B02892B09F0AAC080913C0247
:1059600090916802981709F4CEC1E0913C022E2F65
:1059700030E087E0E89FF0011124E25CFD4FF093F6
:105980003B02E0933A028281938190938900809355
:105990008800808191819093360280933502E48162
:1059A000809137028E1761F1E093370282E1E89F20
:1059B000F0011124E559FD4FF0933902E0933802CC
:1059C00084859585A685B785B695A795979587957E
:1059D0008093210290932202A0932302B093240289
:1059E00080931D0290931E02A0931F02B093200289
:1059F0008093190290931A02A0931B02B0931C0289
:105A0000A0913802B091390250968C9150979091A4
:105A1000170289278093280287E0829FF001839FE5
:105A2000F00D1124E25CFD4F25814D915D916D914A
:105A30007C911397022E04C07695679557954795EC
:105A40000A94D2F74093290250932A0260932B02C2
:105A500070932C0214964D915D916D917C911797E6
:105A6000022E04C076956795579547950A94D2F70C
:105A700040932D0250932E0260932F0270933002B8
:105A800018968D919D910D90BC91A02D04C0B69556
:105A9000A795979587952A95D2F780933102909391
:105AA0003202A0933302B093340286810E946609C9
:105AB000809154068130A9F483B180913B068823FC
:105AC00081F0109254068CE0ECE3F6E0A8E4B6E036
:105AD00001900D928A95E1F780913706806480935A
